:100000000C9445020C949E050C9477050C945005B5
:100010000C9429050C946D020C946D020C9402054D
:100020000C946D020C946D020C946E0D0C94E00D0A
:100030000C946D020C946D020C946D020C946D0284
:100040000C946D020C946D020C946D020C946D0274
:100050000C946D020C946D020C946D020C94B80417
:100060000C946D020C946D020C946D020C946D0254
:100070000C946D020C946D020C946D020C946D0244
:100080000C946D020C946D020C946D020C946D0234
:100090000C9495080C946D020C946D020C946D02F6
:1000A0000C946D020C946D020C946D02301C351C86
:1000B0003A1C441C4E1C981C981C981C581C621C12
:1000C0006C1C761C831C981C8B1CC103C403B303DB
:1000D000B703BD03E503E503E503C803CC03D00381
:1000E000D603DA03E503E003084AD73B3BCE016EB3
:1000F00084BCBFFDC12F3D6C74319ABD56833DDA7F
:100100003D00C77F11BED9E4BB4C3E916BAAAABE8D
:10011000000000803F00AED580A83FD300408D1482
:100120002002A1C8DA12817FD9F1DB40A4A6AF007A
:10013000000000240027002A002D003000000005E8
:10014000072061000000000000005F0000000700C1
:100150000700147F147F14242A7F2A1223130864B3
:100160006236495522500005030000001C22410060
:100170000041221C00082A1C2A0808083E08080022
:1001800050300000080808080800606000002010D7
:100190000804023E5149453E00427F400042615101
:1001A00049462141454B311814127F1027454545DA
:1001B000393C4A49493001710905033649494936F4
:1001C000064949291E003636000000563600000058
:1001D00008142241141414141441221408000201BA
:1001E000510906324979413E7E1111117E7F4949FC
:1001F00049363E414141227F4141221C7F494949C4
:10020000417F090901013E414151327F0808087FC1
:1002100000417F41002040413F017F081422417F7F
:10022000404040407F0204027F7F0408107F3E412F
:1002300041413E7F090909063E4151215E7F09196E
:100240002946464949493101017F01013F4040406B
:100250003F1F2040201F7F2018207F631408146355
:100260000304780403615149454300007F41410282
:100270000408102041417F000004020102044040B4
:10028000404040000102040020545454787F484408
:1002900044383844444420384444487F3854545403
:1002A00018087E090102081454543C7F080404789D
:1002B00000447D40002040443D00007F1028440061
:1002C000417F40007C041804787C0804047838449A
:1002D0004444387C14141408081414187C7C080452
:1002E00004084854545420043F4440203C404020DB
:1002F0007C1C2040201C3C4030403C4428102844BA
:100300000C5050503C4464544C44000836410000AA
:10031000007F0000004136080008082A1C08081C5D
:100320002A08080006090906160119804000000085
:1003300000002300260029002C002F0004040404E0
:10034000040304050202020204030202020206067A
:100350000606060604040202020404040802011050
:1003600040804010204080408008020401804020EE
:1003700010020110801020404020000000020009FF
:100380000F0000030401000C00000000000000004A
:10039000000000000000000000070605040100083E
:1003A0000A0B0C0D09250056200042617474657219
:1003B0007920002D002D0076302E352E3500546129
:1003C00070436C6F636B00746170206F7220736890
:1003D000616B65206D6500576174636858005765EF
:1003E0006C636F6D6520746F0000030C0F30333C3D
:1003F0003FC0C3CCCFF0F3FCFF1F1C1F1E1F1E1FEE
:100400001F1E1F1E1F00000000250028002B002EAD
:10041000003100080B000202020100090400000183
:10042000020200000524001001052401010104243A
:100430000206052406000107058103100040090497
:100440000100020A00000007050202400000070543
:1004500083024000000403090412010002EF0201BC
:100460004041233680000101020301417264756935
:100470006E6F204C4C430041726475696E6F204C66
:10048000656F6E6172646F00C21C11241FBECFEFD6
:10049000DAE0DEBFCDBF11E0A0E0B1E0EEEDF6E4C2
:1004A00002C005900D92A63DB107D9F723E0A6ED55
:1004B000B1E001C01D92A937B207E1F712E0C5E42F
:1004C000D2E004C02197FE010E944A20C434D10723
:1004D000C9F70E94DC120C946D230C940000CF929B
:1004E000DF92EF92FF920F931F93CF93DF936C01F4
:1004F0007A018B01C0E0D0E0CE15DF0581F0D80194
:100500006D918D01D601ED91FC910190F081E02D6E
:10051000C6010995892B11F02196EECF7E01C70106
:10052000DF91CF911F910F91FF90EF90DF90CF90CF
:1005300008953FB7F89480914F0290915002A09196
:100540005102B091520226B5A89B05C02F3F19F069
:100550000196A11DB11D3FBFBA2FA92F982F882743
:10056000820F911DA11DB11DBC01CD0142E0660F9E
:10057000771F881F991F4A95D1F708950895CF9343
:10058000DF93EC019C818E81981768F48F85682732
:10059000E881F9810084F185E02D42E0CE010995E2
:1005A0008C818F5F8C83DF91CF9108958091610260
:1005B00090E020916202821B9109089585ED80935D
:1005C000BC008091BC0084FDFCCF1092A90208956C
:1005D00040912702262F30E0240F311D21323105B2
:1005E000DCF42091A9022430C9F4FC0180E090E001
:1005F000861758F4309127022191DC01A95FBD4F85
:10060000A30FB11D2C930196F3CF80912702680FA1
:100610006093270280E0089581E0089582E00895C4
:10062000089508950895E091620280916102E817AB
:1006300030F4F0E0ED59FD4F808190E008958FEFA8
:100640009FEF08959091620280916102981750F493
:10065000E92FF0E0ED59FD4F208130E09F5F90934E
:10066000620202C02FEF3FEFC9010895CF92DF92DF
:10067000EF92FF920F931F93CF93DF937C01CB01F7
:100680008A012091AA02222389F0EB016B01C40E9A
:10069000D51ECC15DD0569F06991D701ED91FC916E
:1006A0000190F081E02DC7010995F3CF642F0E94DE
:1006B000E802C801DF91CF911F910F91FF90EF9059
:1006C000DF90CF900895CF93DF931F92CDB7DEB721
:1006D00069832091AA022223D1F02091CC022032FA
:1006E00040F021E030E0FC013383228380E090E0A1
:1006F00015C08091AB02E82FF0E0E455FD4F9981E1
:1007000090838F5F8093AB028093CC0205C061E041
:10071000CE0101960E94E80281E090E00F90DF9107
:10072000CF91089583B78E7F83BFEE988EEB92E0D2
:10073000909309018093080182E390E09093D701A0
:100740008093D6010895089580E090E008950E9476
:100750007E2090E0FC013197EF30F105B0F5EB59C8
:10076000FF4F0C944A20809180008F7703C08091C6
:1007700080008F7D80938000089580918000877F26
:10078000F9CF84B58F7702C084B58F7D84BD08957D
:10079000809190008F7707C0809190008F7D03C07B
:1007A00080919000877F8093900008958091C00091
:1007B0008F7703C08091C0008F7D8093C000089523
:1007C0008091C200877F8093C20008951F93CF93CA
:1007D000DF93282F30E0F901E658FC4F8491F901AE
:1007E000E55AFC4FD491F901E45CFC4FC491CC2351
:1007F000C1F0162F81110E94A903EC2FF0E0EE0F3B
:10080000FF1FEB5FFB4FA591B4919FB7F8941111B7
:1008100004C08C91D095D82302C0EC91DE2BDC93E0
:100820009FBFDF91CF911F9108951F93CF93DF93C7
:10083000EC01162F61E0411101C060E08A890E943D
:10084000E60380E58CBD81E08DBD60E089890E9472
:10085000E6031EBD00000DB407FEFDCF8EB561E0BE
:100860008989DF91CF911F910C94E603CF93DF9399
:1008700090E0FC01E55AFC4F2491FC01E45CFC4F44
:100880008491882361F190E0880F991FFC01E15D5C
:10089000FE4FC591D491FC01EB5FFB4FA591B49144
:1008A000611109C09FB7F8948881209582238883BD
:1008B000EC912E230BC0623061F49FB7F8948881CD
:1008C000322F309583238883EC912E2B2C939FBF5E
:1008D00006C08FB7F894E8812E2B28838FBFDF9155
:1008E000CF9108958F929F92AF92BF92CF92DF9255
:1008F000EF92FF926B017C010E9499024B015C0117
:10090000C114D104E104F104F1F00E949902DC0168
:10091000CB0188199909AA09BB09883E9340A10512
:10092000B10570F321E0C21AD108E108F10888EEA0
:10093000880E83E0981EA11CB11CC114D104E104EF
:10094000F10419F7DDCFFF90EF90DF90CF90BF90CB
:10095000AF909F908F9008952FB7F89460914B02BD
:1009600070914C0280914D0290914E022FBF0895DC
:100970001F920F920FB60F9211242F933F938F93D4
:100980009F93AF93BF9380914B0290914C02A091A3
:100990004D02B0914E0230914A0223E0230F2D37D1
:1009A00020F40196A11DB11D05C026E8230F029673
:1009B000A11DB11D20934A0280934B0290934C02DB
:1009C000A0934D02B0934E0280914F02909150023D
:1009D000A0915102B09152020196A11DB11D8093C8
:1009E0004F0290935002A0935102B0935202BF91D4
:1009F000AF919F918F913F912F910F900FBE0F90CC
:100A00001F9018951F920F920FB60F9211242F93DB
:100A10003F934F935F936F937F938F939F93AF9386
:100A2000BF93EF93FF93E0910801F09109010995BD
:100A3000FF91EF91BF91AF919F918F917F916F91B6
:100A40005F914F913F912F910F900FBE0F901F908C
:100A500018951F920F920FB60F9211242F933F9368
:100A60004F935F936F937F938F939F93AF93BF93B6
:100A7000EF93FF93E0910601F09107010995FF9133
:100A8000EF91BF91AF919F918F917F916F915F9106
:100A90004F913F912F910F900FBE0F901F9018957F
:100AA0001F920F920FB60F9211242F933F934F93E3
:100AB0005F936F937F938F939F93AF93BF93EF93C6
:100AC000FF93E0910401F09105010995FF91EF91E9
:100AD000BF91AF919F918F917F916F915F914F9156
:100AE0003F912F910F900FBE0F901F9018951F925E
:100AF0000F920FB60F9211242F933F934F935F9352
:100B00006F937F938F939F93AF93BF93EF93FF93D5
:100B1000E0910201F09103010995FF91EF91BF91DE
:100B2000AF919F918F917F916F915F914F913F9185
:100B30002F910F900FBE0F901F9018951F920F923C
:100B40000FB60F9211242F933F934F935F936F93A0
:100B50007F938F939F93AF93BF93EF93FF93E09116
:100B60000001F09101010995FF91EF91BF91AF91C3
:100B70009F918F917F916F915F914F913F912F91B5
:100B80000F900FBE0F901F901895CF92DF92EF92AB
:100B9000FF920F931F93CF93DF93EC0188E60E949F
:100BA000931060E08DEC92E00E9463030E94371086
:100BB00067E070E088E690E00E94F4108DEC92E02F
:100BC0000E9422038F77982F92959F701AEF082F1B
:100BD000919F000D11248DEC92E00E9422039C0154
:100BE000332794E0359527959A95E1F7F82E129FD3
:100BF000F00C11248DEC92E00E9422039C0133271B
:100C000044E0359527954A95E1F7E82E129FE00CD0
:100C100011248DEC92E00E9422038DEC92E00E9460
:100C200022039C01332754E0359527955A95E1F727
:100C3000D82E129FD00C11248DEC92E00E9422033A
:100C40009C01332764E0359527956A95E1F7C82E16
:100C5000129FC00C11248DEC92E00E9422039C0193
:100C6000332774E0359527957A95E1F7129F800D2B
:100C700011248883C982DA82EB82FC820D83CE0143
:100C8000DF91CF911F910F91FF90EF90DF90CF9068
:100C90000895EF92FF920F931F93CF93DF93EC0190
:100CA00069813881432F50E08A8190E0E9EFF3E0D9
:100CB00021E0261730F47491870F911D2F5F319634
:100CC000F8CF633018F0337009F401966DE671E0E7
:100CD000469F9001479F300D569F300D11242150A3
:100CE00031094D5F5F4F5695479556954795240FAF
:100CF000351F280F391FA8E1B0E00E9450202B813A
:100D00007B018C01E20EF11C011D111DA801970150
:100D1000ACE3B0E00E945F202C817B018C01E20EED
:100D2000F11C011D111DA80197010E945F202D815A
:100D3000DC01CB01820F911DA11DB11DBC01CD01B4
:100D400060587C4B8249974CDF91CF911F910F9156
:100D5000FF90EF900895FC01908190539A3008F035
:100D600090E0818180532AE0929F800D11240895A4
:100D70008F929F92AF92BF92CF92DF92EF92FF92AB
:100D8000CF93DF93EC016A017B0180E8C81A83E40A
:100D9000D80A8DE6E80A88E3F80A8CE3882E912CBD
:100DA000A12CB12CC701B601A50194010E942820F5
:100DB0006D83CA01B901A50194010E9428206C83AA
:100DC000C701B60120E13EE040E050E00E9428204B
:100DD000CA01B90128E130E040E050E00E9428203B
:100DE0006B83C701B60120E831E541E050E00E9485
:100DF000282018824881542F537081E009F080E048
:100E000090E0BC0163597E4F2617370738F0281B46
:100E1000390B2D5631404F5F4883ECCF81E08983F9
:100E20008981E82FF0E0E850FC4FE491511103C0B4
:100E3000823009F4EF5FF0E02E173F0720F02E1B01
:100E40003F0B8F5FECCF2F5F2A83DF91CF91FF9015
:100E5000EF90DF90CF90BF90AF909F908F900895CC
:100E60001F93CF93DF9300D0CDB7DEB7162F5A83F1
:100E700049830E949310612F8DEC92E00E946303DE
:100E800019816A818DEC92E00E946303612F8DECE1
:100E900092E00E9463030E94371091E0811190E07C
:100EA000892F0F900F90DF91CF911F9108953F925E
:100EB0004F925F926F927F928F929F92AF92BF926A
:100EC000CF92DF92EF92FF920F931F93CF93DF9316
:100ED00000D000D000D0CDB7DEB7982E862E4D833F
:100EE00059010E94AC046B017C01312C1E829D8152
:100EF000892F90E09C838B832801612C712CED81DC
:100F00003E16C0F5892D0E949310682D8DEC92E05D
:100F10000E9463030E943710892D0E9493106B81F9
:100F20007C81631971096132710514F060E270E02F
:100F3000613208F060E2892D0E94B21010926202C4
:100F4000809361029091610280916202981709F486
:100F500043C00115110569F10E94AC04DC01CB010D
:100F60008C199D09AE09BF0984159505A605B7051D
:100F700000F132C001151105A9F10E94AC04DC0199
:100F8000CB018C199D09AE09BF0920E030E0801724
:100F90009107A207B30730F1FD812F2F30E04E817A
:100FA000842F440F990B82179307E4F48FEF8E83FD
:100FB00019C0F5012E81E20FF11D27FDFA95FA8384
:100FC000E9838DEC92E00E942203E981FA8180831B
:100FD000FE81FF5FFE83B6CF8D81813208F080E213
:100FE000380E8DCF8E8126960FB6F894DEBF0FBED9
:100FF000CDBFDF91CF911F910F91FF90EF90DF90C8
:10100000CF90BF90AF909F908F907F906F905F90A8
:101010004F903F900895CF92DF92EF92FF920F93FF
:101020001F93CF93DF9300D0CDB7DEB7F82EE62E17
:10103000D42EC22E08EE13E09E012E5F3F4F41E0FA
:101040000E9457079A8121E030E001C0220FDA9414
:10105000EAF7CC2019F0892F822B03C0822F8095CC
:1010600089238A838983AE014F5F5F4F6E2D8F2D59
:101070000E9474110F900F90DF91CF911F910F91EB
:10108000FF90EF90DF90CF900895BF92CF92DF92C4
:10109000EF92FF920F931F93CF93DF9300D0CDB7C2
:1010A000DEB7F82EE62EC42EB22ED02E08EE13E0B8
:1010B0009E012E5F3F4F41E00E945707882341F178
:1010C0004C2D50E04B1951094F5F5F4F81E090E08C
:1010D00002C0880F991FBA94E2F70197042E01C04D
:1010E000880F0A94EAF72D2D01C0220F4A95EAF7DE
:1010F000382F30959A8193238223892B8A83898381
:10110000AE014F5F5F4F6E2D8F2D0E94741101C095
:1011100080E00F900F90DF91CF911F910F91FF9082
:10112000EF90DF90CF90BF9008951F920F920FB66F
:101130000F9211242F933F934F935F936F937F935D
:101140008F939F93AF93BF93EF93FF938091B900D9
:10115000887F803609F49CC068F5883209F45BC04A
:1011600090F4803109F454C038F4882309F4F6C0AF
:10117000883009F44DC0F6C0883109F44CC0803283
:1011800009F45DC0EFC0803409F468C048F48033CE
:1011900009F455C0883309F0E5C08093A702D8C090
:1011A000803509F44FC0883509F45DC0883409F0F2
:1011B000D9C0D6C0883909F4C7C0A8F4883709F463
:1011C00067C038F4883609F463C0803709F460C01A
:1011D000C9C0883809F4B8C0803909F45FC08038C4
:1011E00009F0C0C05BC0803B09F486C038F4803A87
:1011F00009F466C0883A09F47FC0B4C0803C09F4A1
:10120000A7C0883C09F4A4C0883B09F48AC0AAC0DE
:101210008091840210C09091A6028091A502981737
:1012200070F5E091A60281E08E0F8093A602F0E0B7
:10123000EB57FD4F80818093BB0085EC86C0809387
:10124000A7028EC0E091A60281E08E0F8093A602D5
:101250008091BB00F0E0EB57FD4F80839091A60298
:101260008091A5026EC0E091A60281E08E0F80936E
:10127000A6028091BB00F0E0EB57FD4F8083809188
:10128000A80281116DC081E08093830284EA61C06D
:1012900083E08093A90210924902CFCF8091490246
:1012A000803208F051C0E091490281E08E0F8093B6
:1012B00049028091BB00F0E0E75DFD4F8083BDCF28
:1012C00085EC8093BC001092A90280914902803283
:1012D00030F4E0914902F0E0E75DFD4F108260914B
:1012E000490270E0E0915D02F0915E0289E292E0D5
:1012F00009951092490236C084E08093A9021092A9
:10130000280210922702E0915F02F0916002099595
:1013100080912702811105C081E0809327021092FD
:101320000702E091280281E08E0F80932802F0E00E
:10133000E95FFD4F80818093BB00909128028091EE
:101340002702981708F479CF85E88093BC000AC07B
:1013500085EC8093BC001092A90204C01092A702F1
:101360000E94DE02FF91EF91BF91AF919F918F910B
:101370007F916F915F914F913F912F910F900FBE91
:101380000F901F901895DC01ED91FC910084F18580
:10139000E02D40E009940F931F93CF938C01FC0143
:1013A00064838085C62FC80F6C2F6F70C8010E94A0
:1013B000C3096C2F62956F706061C801CF911F9156
:1013C0000F910C94C309FC018781869586958695BB
:1013D000681740F465839385690F6770606BCF0170
:1013E0000C94C30908951F93CF93DF93EC01142F3E
:1013F0008E81681718F4CE010E94CB09612FCE01AF
:10140000DF91CF911F910C94E309CF92DF92EF927D
:10141000FF920F931F93CF93DF93EC01F62EC42E10
:10142000D22E8F81869586958695081710F00FEF3E
:10143000080F1D2D011780F0412F6F2DCE010E9446
:10144000F309EF2CCE1430F06F85CE010E94BF025D
:10145000E394F8CF1F5FEECF4D2D6F2DCE01DF91BE
:10146000CF911F910F91FF90EF90DF90CF900C9450
:10147000F3092F923F924F925F926F927F928F92D9
:101480009F92AF92BF92CF92DF92EF92FF920F9313
:101490001F93CF93DF93CDB7DEB729970FB6F8949C
:1014A000DEBF0FBECDBFDC011D962D913C911E9776
:1014B0002115310509F462C199878887F9013296AF
:1014C000449031967491E72EF12CB7E0EB0EF11CAD
:1014D00093E0F594E7949A95E1F7EA823196A49126
:1014E0003196E4916A1758F0462F50E08E2F90E025
:1014F000FC01EA0FF11D4E175F070CF476C06D304A
:1015000061F4E885F9858681882309F434C160E0B7
:10151000888599850E94CB092EC16A3009F02EC1B9
:10152000A885B98516968C911697882321F060E0DE
:10153000CD010E94CB09E885F98500890E9DE02C3C
:101540001124278126952695269565816E0D8E2D71
:10155000821B860F9485992309F409C118160CF093
:1015600006C1A885B9851B969C911B97890F87702A
:101570001B968C931B972E1915962C9315971D96D9
:10158000ED91FC911E97309769F03396E491F0E06D
:10159000379683E0F595E7958A95E1F70E9FE02D64
:1015A000112401C0E0E00FEF020F0E0FE885F9856E
:1015B000468141506481CF010E94050AA885B98502
:1015C0001C968C911C97813009F0D5C01B966C91AC
:1015D0001B97660F660F660F6F731A966C931A97B8
:1015E0006064CD010E94C309C6C0A9014A5F5F4F74
:1015F0006A1BA885B9851996FC9119975096EC91AC
:10160000FE9FE02D1124EF83F901A49131962491DE
:1016100030E03A2B2230310570F44E9CC0014F9CD3
:10162000900D1124689F8001699F100D1124040FF3
:10163000151F312C22C0777021F028E0322E371A86
:1016400001C0312CFA0120E0A0E0B0E0261731F013
:101650003491A30FB11D2F5F3196F8CFFA01E20F3D
:10166000F11D4490EA9E8001EB9E100DFA9E100D34
:101670001124080F191F040F151FA885B98514968A
:10168000BC91BB83E885F985F581FC83842D90E0CE
:101690009E838D83812C912CC12CD12CC9829A815F
:1016A000C91608F063C0212C3601BFEF6B1A7B0A04
:1016B000E885F9858089281608F050C0F981F11174
:1016C00002C0222051F0A885B98515964C91159736
:1016D0004F5F6B81CD010E94F309A12CB12CA414A2
:1016E00010F0B12C2FC0F401EA0DFB1DE00FF11F2B
:1016F0005490332061F0E614F70449F4E52DF0E04E
:10170000032C02C0F595E7950A94E2F75E2EE88572
:10171000F9858089823069F4E52D2110E295EF701A
:10172000F0E0E751FC4F5490652D888599850E9423
:10173000BF02652D888599850E94BF02FFEFAF1A11
:10174000BF0ACDCF8F81B81639F060E088859985C2
:101750000E94BF02B394F6CF2394AACF9FEFC91A79
:10176000D90AAD81BE818A0E9B1E98CF6C81888577
:1017700099850E94E30981E090E002C080E090E05A
:1017800029960FB6F894DEBF0FBECDBFDF91CF9183
:101790001F910F91FF90EF90DF90CF90BF90AF908F
:1017A0009F908F907F906F905F904F903F902F9081
:1017B0000895CF93DF931F92CDB7DEB76983DC0125
:1017C000ED91FC910280F381E02D41E050E0BE01FB
:1017D0006F5F7F4F09950F90DF91CF91089583E060
:1017E0008093E9008091F200882319F08AE38093C6
:1017F000E8000895FC018485958597FD0BC09FB78F
:10180000F89482E08093E9008091F2009FBF90E01D
:10181000019608959FB7F89482E08093E900809143
:10182000F2009FBF90E008958F929F92AF92BF9277
:10183000CF92DF92EF92FF920F931F93CF93DF939C
:101840006C017B018A0180911D01882309F45CC031
:1018500080915C02882309F457C08091580280FF70
:1018600005C08091E00082608093E000E801B12C27
:101870008AEFA82E93E0892E2AE3922E209711F466
:10188000BB20D9F10E947C1281110AC0AA94AA201F
:10189000D9F161E070E080E090E00E947204EECF48
:1018A000282F30E0C217D3070CF48C2F9FB7F89481
:1018B0008092E9002091E80025FF1DC0282F30E02C
:1018C000C21BD30BF701815020F041914093F100EE
:1018D000FACFE20EF31EBB2019F09092E8000AC086
:1018E0008091E80085FD07C09092E800BB24B39486
:1018F000209709F0B12C9FBFC1CF5D9884E68093FB
:101900005A021016110644F081E090E0F60193832C
:10191000828380E090E001C0C801DF91CF911F91E8
:101920000F91FF90EF90DF90CF90BF90AF909F907E
:101930008F9008950E947C1290E008950F931F935A
:10194000CF93DF931F92CDB7DEB78C01FC01848566
:10195000958597FF0EC0CE0101960E944E12019709
:1019600019F4898190E002C08FEF9FEFF80195870D
:101970008487F801848595850F90DF91CF911F9121
:101980000F910895CF93DF931F92CDB7DEB7FC017F
:101990008485958597FD05C02FEF3FEF3587248718
:1019A0000BC0CE0101960E944E12019719F4898155
:1019B00090E002C08FEF9FEF0F90DF91CF910895DD
:1019C000DF92EF92FF920F931F93CF93DF93D82E66
:1019D000F92EE42E062F10E0C8010196880F0E9410
:1019E000A11283E00E94A112CD2DDF2D0C0F1D1F2F
:1019F000C017D10789F0E7FE03C0FE01849101C042
:101A000088810E94A112F82E80E00E94A1128F21ED
:101A100021968111EDCF01C081E0DF91CF911F911F
:101A20000F91FF90EF90DF900895DF92EF92FF9279
:101A30000F931F93CF93DF93D82E8A017B01E40E7F
:101A4000F51EEB01CE15DF0571F0D7FE03C0FE01D8
:101A5000849101C088810E94A11221968111F2CF48
:101A60008FEF9FEF01C0C801DF91CF911F910F91C0
:101A7000FF90EF90DF9008950F931F93CF93DF9324
:101A80001F92CDB7DEB782E0898342E450E063E184
:101A900074E080E80E94150D0E948D12DC01129600
:101AA0000D911C9113970115110589F0D801ED9145
:101AB000FC910280F381E02DBE016F5F7F4FC80172
:101AC000099597FD04C0F80100851185ECCF898147
:101AD0000F90DF91CF911F910F9108951F920F9258
:101AE0000FB60F9211248F939F938091E1009091F4
:101AF000E100937F9093E10083FF0FC01092E90013
:101B000091E09093EB001092EC0092E39093ED0043
:101B100010925C0298E09093F00082FF20C093E066
:101B20009093E9009091F200992319F09AE3909331
:101B3000E80090915A02992339F090915A029150FD
:101B400090935A02992389F190915B02992339F07D
:101B500090915B02915090935B02992341F184FF35
:101B600010C08091E2008E7E81608093E2008091BF
:101B7000E1008F7E8093E100809158028E7E80612B
:101B800011C080FF16C08091E2008E7E806180933C
:101B9000E2008091E1008E7E8093E1008091580206
:101BA0008E7E81608093580204C05D9ACDCF289AC2
:101BB000D6CF9F918F910F900FBE0F901F901895C9
:101BC0001F920F920FB60F921124CF92DF92EF92D5
:101BD000FF920F931F932F933F934F935F936F93B6
:101BE0007F938F939F93AF93BF93EF93FF93CF9385
:101BF000DF93CDB7DEB76C97DEBFCDBF1092E900A3
:101C00008091E80083FFFBC168E0CE0145960E9409
:101C1000CF1282EF8093E8008D8987FF05C09091F5
:101C2000E80090FFFCCF03C09EEF9093E800982F50
:101C3000907609F0C6C09E894F89588D2F89F88CFF
:101C400091110CC0803829F4809157028093F100E3
:101C500002C01092F1001092F10045C1913051F490
:101C6000811141C14130510509F03DC180915702B8
:101C70008D7F0BC0933061F4811135C14130510526
:101C800009F031C1809157028260809357022BC1C5
:101C9000953049F48091E80080FFFCCF822F806866
:101CA0008093E30020C1963009F05EC00B8D1C8D3F
:101CB00022E01092E9001092560210925502F212A0
:101CC00032C010925402109253020E943C0D99E0CF
:101CD000BE016F5F7F4FDB01E92F1D92EA95E9F7A7
:101CE0009983FA8291E09E8390EA98879AEF998788
:101CF0002091550230915602275F3F4F3C832B8342
:101D00008D831092E90010925602109255021093A2
:101D100054020093530249E050E080E00E94150D08
:101D20000E943C0DE0C010935402009353020E94A5
:101D30008D12DC0112960D911C911397011511055E
:101D400009F4BBC0D801ED91FC910480F581E02D30
:101D5000BE016B5E7F4FC8010995009709F0C7C0AF
:101D6000F80100851185EACF973009F445C1983014
:101D700021F481E08093F100B6C0993009F0B3C03E
:101D8000837009F039C1E9E3F1E081E031E096E3E5
:101D90002081211109C08EE78093EA001092EA00A9
:101DA0008F8980935C029FC08093E9003093EB00A1
:101DB00021912093EC009093ED008F5F873041F7E5
:101DC000EACF8B8D9C8D1092E900109256021092F2
:101DD00055029093540280935302898D811153C010
:101DE0008E899D89913A49F4813209F005C147E015
:101DF00050E066E171E080E0BBC0913209F0FCC0C8
:101E0000833269F48F89988DA0E0B0E0809312014D
:101E100090931301A0931401B093150164C0803214
:101E200069F48091E80082FFFCCF67E086E191E0F1
:101E30000E94CF128BEF8093E80055C0823209F0E8
:101E400052C08F8980931D01EEEFFFE78591949139
:101E50008B3F9C4D19F0E0E0F8E002C0EEEFFAE0B5
:101E60008091160190911701A0911801B09119016C
:101E7000803B9440A105B10509F09EC080911D01F1
:101E800080FF79C099C00E948D12FC0102811381EC
:101E90000115110509F4B0C0D801ED91FC91019034
:101EA000F081E02DBE016B5E7F4FC8010995811165
:101EB0001AC0F80100851185EBCFF1E0FF1609F497
:101EC0004EC0F3E0FF1298C08F89882309F44AC0FE
:101ED000823089F440E860E187E794E00E94E00CFA
:101EE000882309F489C08EEF8093E80088C0181613
:101EF0001906CCF381C0813029F440E86BE08BE611
:101F000094E0ECCF833009F077C00E948D12DC01A1
:101F10001296ED90FC9013978E010F5F1F4F680192
:101F2000E114F10479F0D701ED91FC910680F7817D
:101F3000E02DB801C7010995080F111DF701E084D4
:101F4000F184EECFD8011C92F60101900020E9F750
:101F50003197BF016C197D0940E0C601BFCF69E52B
:101F600074E002C065E574E0FB01449150E080E854
:101F70000E94150DB8CFEE3F2AE0F20751F08081A4
:101F800091818737A7E79A0721F09093FF0A809302
:101F9000FE0A87E797E791838083809160008093B2
:101FA00059029BE088E10FB6F894A89580936000F1
:101FB0000FBE9093600097CF8081918187379747BC
:101FC00009F091CFA89580916000886180936000AE
:101FD0008091590280936000EE3FBAE0FB0739F030
:101FE0008091FE0A9091FF0A918380837CCF1092AA
:101FF000FF0A1092FE0A77CF81E28093EB006C9685
:102000000FB6F894DEBF0FBECDBFDF91CF91FF9129
:10201000EF91BF91AF919F918F917F916F915F9160
:102020004F913F912F911F910F91FF90EF90DF9073
:10203000CF900F900FBE0F901F9018950F93CF93D6
:10204000DF93EC011B861A8660E40E94C3090F81AE
:1020500006950695069501504E81415020E060E0BE
:10206000CE010E94050ADF91CF910F910895309122
:10207000CC02313208F04BC08091A9028111FCCF13
:102080009091280322E02093A90221E02093A80246
:102090002FEF2093A7021092A6023093A502ECEA3C
:1020A000F2E0A5E8B2E020E0321721F041914D9333
:1020B0002F5FFACF1092840220918402990F922B05
:1020C0009093840290918302913061F41092830284
:1020D000909184029093BB009091BC0093FDF8CF47
:1020E00095EC01C095EE9093BC009091A9029230BE
:1020F000E1F39091A7029F3F79F08091A70280328F
:1021000041F08091A702803331F084E005C081E086
:1021100003C082E001C083E01092AB021092CC02B7
:102120001092AA02089591E09093AA028093280346
:102130001092AB021092CC020895CF93DF93D82F68
:10214000C62F8EE00E9493106D2F8DEC92E00E94BE
:1021500063036C2F8DEC92E00E946303DF91CF91BB
:102160000C9437109091A9029111FCCF91E09093BB
:10217000A9029093A8022FEF2093A7021092A60223
:10218000260F2093A5029093840290918402880FD9
:10219000892B8093840280918302813061F41092B4
:1021A0008302809184028093BB008091BC0083FDF8
:1021B000F8CF85EC01C085EE8093BC008091A90228
:1021C0008130E1F38091A602861710F46091A60297
:1021D000A5E8B2E0E3E6F2E080E0861721F09D9109
:1021E00091938F5FFACF0895613208F060E20E9408
:1021F000B21010926202809361020895CF93DF9330
:10220000D82F8EE00E9493106D2F8DEC92E00E94EB
:1022100063030E94371083E090E00197F1F761E0DB
:1022200070E08EE090E00E94F41090916102809145
:102230006202981731F08DEC92E00E942203C82FC1
:10224000F4CF8C2FDF91CF9108951092F80280E1A6
:102250000E94FE10682F6C7F80E10C949D10CF933C
:10226000C82F60E088E08C0F0E949D106FE070E046
:1022700080E090E00E94720460E089E08C0FCF91D2
:102280000C949D1010926202109261021092AB02A7
:102290001092CC021092A90281E08093A8021092C1
:1022A000830261E082E00E94E60361E083E00E9435
:1022B000E603E9EBF0E080818E7F808380818D7F73
:1022C000808388E48093B80085E48093BC0080E13B
:1022D00093E09093600280935F0281E193E090939A
:1022E0005E0280935D0208951F93CF93DF93162FB4
:1022F000EA010E949310612F8DEC92E00E9463032B
:1023000068818DEC92E00E9463030E94371091E097
:10231000811190E0892FDF91CF911F910895CF9384
:10232000DF93EC018AEC91E00E94AB0688838BE09E
:10233000898385EC91E00E94AB068A838DEC91E065
:102340000E94AB068B8380ED91E00E94AB068C83EC
:1023500083ED91E00E94AB068D83DF91CF910895CC
:10236000009769F0FC0101900020E9F73197AF0177
:10237000481B590BBC0189E093E00C946F0280E08C
:1023800090E008950F931F93CF93DF938C01C0E0EB
:10239000D0E0F801EC0FFD1F6491662341F089E065
:1023A00093E00E94390A892B11F02196F2CFCE01D9
:1023B000DF91CF911F910F9108958F929F92AF92CD
:1023C000BF920F931F93CF93DF93CDB7DEB7A19743
:1023D0000FB6F894DEBF0FBECDBF19A2423008F48D
:1023E0004AE08E010F5D1F4F842E912CA12CB12C41
:1023F000A50194010E942820E62FB901CA010150CD
:102400001109EA3014F4E05D01C0E95CD801EC93F5
:10241000232B242B252B61F7C8010E94B011A19614
:102420000FB6F894DEBF0FBECDBFDF91CF911F91E5
:102430000F91BF90AF909F908F900895CF92DF92B1
:10244000EF92FF92CF93DF936C01990FEE08FF0894
:10245000F7FE19C06DE289E093E00E94390AEC01B1
:1024600066277727CB016C197D098E099F094AE001
:102470000E94DD118C0F9D1FDF91CF91FF90EF9097
:10248000DF90CF9008954AE0C701B601DF91CF9168
:10249000FF90EF90DF90CF900C94DD1120915C02C3
:1024A000211103C08FEF9FEF08955FB7F89422E0EA
:1024B0002093E9002091F20030E01216130614F484
:1024C00021E030E0422FFC0184E6415038F02898AA
:1024D00080935B029091F1009193F7CF2115310524
:1024E00021F08091F200882319F05FBFC90108959F
:1024F0008BE68093E800F9CF2FB7F89483E08093C0
:10250000E9009091E800892F807295FF04C09091B6
:10251000F20080E4891B2FBF089580912003811170
:102520000DC082E080931C0384E080931D03109211
:102530001F0310921E0381E0809320038CE193E03F
:1025400008954091550250915602209153023091C6
:10255000540242175307B4F49091E8009570E1F3E8
:102560009091E80092FD19C08093F100809155028E
:102570009091560201968F739927892B19F48EEF4B
:102580008093E800809155029091560201969093B5
:1025900056028093550281E0089580E008956150CD
:1025A00030F02091F100FC0120830196F8CF2898AB
:1025B00084E680935B020895CF93DF93CDB7DEB7B7
:1025C000E4970FB6F894DEBF0FBECDBF789484B504
:1025D000826084BD84B5816084BD85B5826085BD1F
:1025E00085B5816085BD80916E00816080936E00AD
:1025F000109281008091810082608093810080919F
:10260000810081608093810080918000816080934F
:102610008000809191008260809391008091910070
:102620008160809391008091900081608093900000
:102630008091C10084608093C1008091C10082605C
:102640008093C1008091C10081608093C10080911E
:10265000C30081608093C3008091C000826080933A
:10266000C0008091C20081608093C20080917A0096
:10267000846080937A0080917A00826080937A00EF
:1026800080917A00816080937A0080917A008068DE
:1026900080937A0010925C021092570210925802B6
:1026A0008091D70081608093D70080EA8093D80022
:1026B00089B5806189BD89B5826089BD09B400FE94
:1026C000FDCF61E070E080E090E00E9472048091B4
:1026D000D8008F7C80618093D8008091E000807F5B
:1026E0008093E0008091E1008E7E8093E1008DE098
:1026F0008093E200559A209A0E944211CE010196E1
:102700000E94C50586E0FE013196A9EDB2E0019078
:102710000D928A95E1F7CE010D960E948F1189EDF9
:1027200092E00E9449066B017C01CE010D960E9449
:102730004906C616D706E806F90608F0B0C0CE016D
:1027400007960E948F11CE0107960E944906AB01A1
:10275000BC01485F5F4F6F4F7F4FCE0101960E94D3
:10276000B80688E60E94931060E08DEC92E00E942B
:1027700063032E811AE0822F612F0E940820682FA8
:10278000660F860F880F682F620F8DEC92E00E9413
:1027900063032D81822F612F0E940820682F660F0E
:1027A000860F880F682F620F8DEC92E00E94630302
:1027B0002C81822F612F0E940820682F660F860FC0
:1027C000880F682F620F8DEC92E00E94630360E037
:1027D0008DEC92E00E9463032B81822F612F0E9477
:1027E0000820682F660F860F880F682F620F8DEC08
:1027F00092E00E9463032A81822F612F0E940820A9
:10280000682F660F860F880F682F620F8DEC92E09D
:102810000E9463032981822F612F0E940820682F64
:10282000660F860F880F682F620F8DEC92E00E9472
:1028300063030E94371088E60E9493106FE08DECCE
:1028400092E00E9463030E94371061E088E60E94D4
:10285000B21010926202809361028DEC92E00E94AD
:102860002203182F88E60E9493106FE08DEC92E00F
:102870000E946303612F6F778DEC92E00E946303E7
:102880000E943710CE0101960E94C50586E0FE0128
:102890003196A9EDB2E001900D928A95E1F761E0E1
:1028A00086E10E94360460E086E10E94E6036AE069
:1028B00070E080E090E00E94720461E086E10E9496
:1028C000E6036AE070E080E090E00E94720487E135
:1028D00080931A0385E180931B0361E087E10E94E6
:1028E000360461E080911B030E9436041FB7F89400
:1028F0008091D801811127C0EDE4F3E08491ECE6EA
:10290000F3E09491E82FF0E0EE0FFF1FE15DFE4F42
:10291000A591B491EC91E92321F461E081E10E9459
:10292000E60361E081E10E9436048CB580618CBDD4
:102930008CB580648CBD61E08FE00E94360461E05C
:1029400080E10E9436048091D8018F5F8093D80186
:102950001FBF10920D0310920E03E8E2F3E0859181
:102960009491E82EEAE2F3E0F490EBE2F3E0E491F4
:10297000E0930F03ECE2F3E0E491E0931003EDE267
:10298000F3E0E491E09311038C01802F8E198F15F1
:1029900048F4F801649189E093E00E94C3090F5F55
:1029A0001F4FF3CF89E093E00E941E10EDE3F1E0AA
:1029B000F0931703E09316038491EEE3F1E0E491C2
:1029C000F0E0F82B319709F028C71092120389E044
:1029D00093E00E941E1001E023E042E06BE680914C
:1029E000FA020E94450800E022E044E06BE1809199
:1029F000FA020E94450822E044E06CE18091FA026C
:102A00000E94450820E046E06BE68091FA020E94B1
:102A10000B0803E022E045E069E68091FA020E949B
:102A2000450801E023E042E06CE18091FA020E9457
:102A3000450820E047E068E38091FA020E940B0815
:102A400020E045E068E38091FA020E940B0821E053
:102A500046E068E38091FA020E940B0821E047E01B
:102A600067E38091FA020E940B0821E045E067E3EA
:102A70008091FA020E940B084AE650E066E08091DD
:102A8000FA020E94300743E75EEF68E08091FA02A5
:102A90000E94300747EE54E06AE08091FA020E94FB
:102AA000300744E450E063E18091FA020E9430076D
:102AB00047EF5FEF65E18091FA020E9430074DE138
:102AC00050E067E18091FA020E9430078091FA029B
:102AD00090E59C8BAE014C5E5F4F6FE10E947411DC
:102AE0008091FA0294E09B8BAE014D5E5F4F60E2F5
:102AF0000E9474110E9442118CE08093B80087E01C
:102B00000E94FE10843CD9F40E94251160E080E10F
:102B10000E949D1060E881E10E949D101092F702D2
:102B20001092F8021092F9021092E80281E00E94DD
:102B30002F1183E00E942F1185E00E942F1181E068
:102B40008093F80280E10E94FE10682F616080E1AE
:102B50000E949D100E94251161E08DE00E943604C4
:102B600061E086E00E94360460E08DE00E94E603AA
:102B700060E086E00E94E60362E088E00E9436049E
:102B800062E08BE00E94360462E08AE00E94360434
:102B900062E085E00E94360462E087E00E9436042D
:102BA00080E090E0A0E0BFE38093D9019093DA0148
:102BB000A093DB01B093DC018091D8008061809309
:102BC000D8000E94AC042B013C01CE0101960E946A
:102BD000C505FC81F9A70D810DA310E02E812EA360
:102BE000222E312C39813AA74A814BA75B815CA701
:102BF000CE0101960E9449066DA77EA78FA798ABCC
:102C000089ED92E00E94490669AB7AAB8BAB9CAB35
:102C100080911001909111010817190721F081E0AE
:102C20008093060202C01092060280910E019091DC
:102C30000F012816390621F081E08093050202C0B9
:102C400010920502109311010093100130920F01B0
:102C500020920E018091010290910202A091030244
:102C6000B091040293018201081B190B2A0B3B0B44
:102C7000033311052105310508F1409201025092FC
:102C80000202609203027092040220910A013091C4
:102C90000B0180910C0190910D01820F931F909375
:102CA0000D0180930C010B97843F910538F031950D
:102CB0002195310930930B0120930A018091FD0188
:102CC0009091FE01A091FF01B0910002A301920139
:102CD000281B390B4A0B5B0B2B3F31054105510576
:102CE00070F04092FD015092FE016092FF017092DF
:102CF00000029091FC0181E089278093FC01809182
:102D0000F8019091F901A091FA01B091FB019301B2
:102D10008201081B190B2A0B3B0BD901C801853F07
:102D20009140A105B10570F04092F8015092F9016F
:102D30006092FA017092FB019091F70181E089277E
:102D40008093F7018091D90081708093F6018823E8
:102D5000D9F0EFE7F3E08491E0E6F3E01491E1E4E9
:102D6000F3E00491002309F45CC581110E94A903DA
:102D7000E02FF0E0EE0FFF1FE25DFC4FA591B49154
:102D80008C91182309F44DC561E086E00E94360459
:102D900060E086E00E94E60308EE13E02BEF32E0ED
:102DA00046E06BE38091FA020E9457076091FB02B4
:102DB0007091FC02762767277627072E000C880B78
:102DC000990B0E94151F6B017C016091FD027091AF
:102DD000FE02762767277627072E000C880B990BB3
:102DE0000E94151F4B015C010E94081D698F7A8F9C
:102DF0008B8F9C8F6091FF0270910003762767276D
:102E00007627072E000C880B990B0E94151F6D8FDB
:102E10007E8F8F8F98A30E94081D69A37AA38BA32E
:102E20009CA39B01AC01698D7A8D8B8D9C8D0E943A
:102E3000CB1D0E94AE1F9B01AC01C701B6010E94D1
:102E40006B1E0E94371E24EE3EE245E652E40E94CD
:102E50000C1D6D8B7E8B8F8B988FC701B6010E94E6
:102E6000081D6B017C019B01AC0169A17AA18BA1BA
:102E70009CA10E94CB1D0E94AE1F9B01AC01C5010D
:102E8000B4010E946B1E0E94371E24EE3EE245E60E
:102E900052E40E940C1D4B015C01A7019601698D53
:102EA0007A8D8B8D9C8D0E94CB1D0E94AE1F2D8D27
:102EB0003E8D4F8D58A10E946B1E0E94371E24EE3E
:102EC0003EE245E652E40E940C1D6B017C0120E0CD
:102ED00030E044EB52EC6D897E898F89988D0E9499
:102EE0009B1F87FD35C020E030E040EA51EC6D8942
:102EF0007E898F89988D0E94661E18164CF120E0FD
:102F000030E040EF51ECC501B4010E949B1F87FDEA
:102F10001FC020E030E040EF51E4C501B4010E9441
:102F2000661E1816ACF020E030E040EA51E4C7011C
:102F3000B6010E949B1F87FD0BC011E020E030E02E
:102F400044EB52E4C701B6010E94661E18160CF449
:102F500010E020E030E040E751E46D897E898F8900
:102F6000988D0E949B1F87FD35C020E030E044EB28
:102F700052E46D897E898F89988D0E94661E18168D
:102F80004CF120E030E040EF51ECC501B4010E946B
:102F90009B1F87FD1FC020E030E040EF51E4C501DA
:102FA000B4010E94661E1816ACF020E030E040E745
:102FB00051E4C701B6010E949B1F87FD0BC001E0D1
:102FC00020E030E044EB52E4C701B6010E94661EE7
:102FD00018160CF400E08091F2019091F301A09199
:102FE000F401B091F50173016201C81AD90AEA0A25
:102FF000FB0A4091F0015091F101052E000C660B87
:10300000770B8091D6019091D701C39759F4C416DC
:10301000D506E606F70610F411118FC48091F6016B
:1030200081118BC48091D6019091D701C49759F436
:10303000C416D506E606F70610F4011185C4809182
:10304000F601811181C48091D6019091D701C39777
:1030500031F08091D6019091D701C49731F4C41614
:10306000D506E606F70608F076C48091D601909161
:10307000D701CD97B1F48091EC019091ED01A09131
:10308000EE01B091EF0193018201081B190B2A0B8D
:103090003B0BD901C80188389341A105B10508F05F
:1030A00061C48091D6019091D701CD9721F4809190
:1030B000F60181115EC48091D6019091D7018231D1
:1030C000910509F413C10CF046C08D30910509F447
:1030D00036C19CF58A30910509F4D7C07CF4892B60
:1030E00009F093C36FEA89E093E00E94C30989E085
:1030F00093E00E941E108AE090E0E7C08B309105BB
:1031000009F41DC10C9709F080C382E08093190374
:1031100043E06AE189E093E00E94F30987ED93E0E0
:103120000E94C2114092F2015092F3016092F401A8
:103130007092F50188EB9BE0BFC08F30910509F4D8
:10314000FEC00CF4C7C08031910509F4FFC041975F
:1031500009F4F5C05AC38433910509F40FC14CF545
:103160008431910509F4F2C00CF4E9C08531910570
:1031700009F4FBC0C29709F048C361E08DE00E94EA
:10318000E6034092F2015092F3016092F4017092D2
:10319000F50184EC99E09093F1018093F001809126
:1031A000EA019091EB0101969093EB018093EA0183
:1031B00087C08D33910509F4E7C064F5CC9709F019
:1031C00024C360E08DE00E94E6030E94AC0460939B
:1031D000EC017093ED018093EE019093EF016FEAA3
:1031E00089E093E00E94C30989E093E00E941E10E9
:1031F000809164008E7F8093640081E08093E90178
:103200008091E7019091E80101969093E801809305
:10321000E70156C08A35910509F4E7C28B3591055F
:1032200009F0F3C28091640081608093640083B7E9
:10323000817F846083BF83B7816083BF08EE13E022
:103240009E01295F3F4F41E06AE38091FA020E94AC
:1032500057078F8180748093FB0282E993E09093FB
:1032600009018093080180916A008F7C80936A0035
:10327000EE9A889583B78E7F83BFEE988EEB92E0AF
:103280009093090180930801C0C281E080931903E3
:1032900040E060E289E093E00E94F3098EED93E064
:1032A0000E94C2114092F2015092F3016092F40127
:1032B0007092F50180ED97E09093F1018093F00119
:1032C0008091D6019091D70101969093D701809378
:1032D000D6019BC281E08093190347E062E189E057
:1032E00093E00E94F30987EC93E0DACF82E08093C9
:1032F000190341E060E189E093E00E94F3098EEB5D
:1033000093E00E94C21181E08093190345E06EE2D0
:1033100089E093E00E94F30987EB93E00E94C211D9
:103320004092F2015092F3016092F4017092F50123
:103330002CED35E03093F1012093F001C1CFC4169C
:10334000D506E606F70608F460C2BACF89E093E036
:103350000E941E104092F2015092F3016092F4011B
:103360007092F50188EE93E0A7CFC416D506E60665
:10337000F70608F44AC282E390E0A7CF6091FC010F
:103380008DE00E94E60341C280910602811104C0D3
:103390008091E901882311F11F923DA13F931F9273
:1033A00049A54F9381E791E09F938F938DED91E035
:1033B0009F938F930E94832082E08093190343E0C0
:1033C0006EE189E093E00E94F3098DED91E00E94A7
:1033D000B0110FB6F894DEBF0FBECDBF80910502CD
:1033E000811104C08091E901882301F11F92FEA19F
:1033F000FF9386E791E09F938F938DED91E09F93EC
:103400008F930E94832081E08093190343E06BE552
:1034100089E093E00E94F3098DED91E00E94B011E4
:103420000F900F900F900F900F900F908091E901E7
:1034300081110AC080910602882309F46BC0809133
:10344000F601882309F466C0CDA4DEA4EFA4F8A891
:1034500009A91AA92BA93CA9C01AD10AE20AF30AA0
:1034600040E060E089E093E00E94F3091CA5812F11
:1034700090E00E941E1285EB93E00E94C2112BA5E2
:10348000E22FF0E0EE0FFF1FE25EFE4F80819181A0
:103490000E94B01183EB93E00E94C2113AA5832FE2
:1034A00090E08053984F0E941E12C701B6012CE392
:1034B00030E040E050E00E942820CA01B9012CE32E
:1034C00030E040E050E00E9428207F936F93C701D6
:1034D000B60120E13EE040E050E00E9428203F930A
:1034E0002F938BE791E09F938F938DED91E09F93C6
:1034F0008F930E94832040E06CE589E093E00E9476
:10350000F3098DED91E00E94B0110FB6F894DEBF83
:103510000FBECDBF8091E901811112C080910502DB
:10352000882309F436C1C1016AE070E00E941420CA
:10353000892B09F02EC18091F601882309F429C155
:1035400061E084E00E94E60362E370E080E090E0E6
:103550000E947204E4EAF3E0E49120917B00E3FB33
:10356000552750F95FA318A68FA198A535E0880FBD
:10357000991F3A95E1F7922F9F7D892B80937B00CD
:10358000E770E064E0937C0080917A00806480932F
:103590007A0080917A0086FDFCCF6091780080915E
:1035A000790070E0782B072E000C880B990B0E9495
:1035B000151F20E030E040E85AE30E940C1D26E68B
:1035C00036E646E550E40E940C1D2091D901309169
:1035D000DA014091DB015091DC010E946B1E6B010E
:1035E0007C0162E370E080E090E00E94720460E0A1
:1035F00084E00E94E6032AE939E949E550E4C7017D
:10360000B6010E94CA1D2FE632E143E05CE30E944E
:103610006B1E0E94DD1E8B0177FD06C065367105AD
:103620002CF004E610E002C000E010E047E06AE0A1
:1036300089E093E00E94F3098AEA93E00E94C211B4
:10364000A7019601C701B6010E94EE1F882319F059
:1036500085E891E01AC046015701E894B7F82FEFCA
:103660003FEF4FE75FE7C501B4010E94EE1F8111F4
:103670000FC02FEF3FEF4FE75FE7C501B4010E9496
:10368000661E18162CF489E891E00E94B01176C0ED
:103690002FEF3FEF4FE75FE4C701B6010E949B1F8A
:1036A00018161CF48DE891E0F0CF2FEF3FEF4FE7B5
:1036B0005FECC701B6010E94661E87FDF3CF20E0D4
:1036C00030E0A901C701B6010E94661E87FF09C04C
:1036D0006DE289E093E00E94390AF7FAF094F7F876
:1036E000F0942AE037ED43EA5BE3C701B6010E949C
:1036F000CB1D4B015C010E94E41E6B017C010E940A
:10370000131F9B01AC01C501B4010E94CA1D4B01EE
:103710005C014AE0C701B6010E94DD116EE289E05A
:1037200093E00E94390A20E030E040E251E4C50114
:10373000B4010E940C1D4B015C010E94E41E6B0150
:10374000E12CF12C4AE0C701B6010E94DD11C7014E
:10375000B6010E94131F9B01AC01C501B4010E9478
:10376000CA1D20E030E040E251E40E940C1D0E949E
:10377000E41E80E090E04AE00E94DD1187EA93E0D9
:103780000E94C211C8010E941E1285EA93E00E94A5
:10379000C2118091E901882329F18091E8018F937A
:1037A0008091E7018F938091EB018F938091EA01E3
:1037B0008F9381E791E09F938F938DED91E09F939D
:1037C0008F930E94832041E062E689E093E00E94AB
:1037D000F3098DED91E00E94B0110FB6F894DEBFB1
:1037E0000FBECDBF1092E90110C060E08DE00E94D5
:1037F000E60389E093E00E941E106EEA89E093E000
:103800000E94C3098BE590E060CD80E090E0892BB9
:1038100009F4D7C90E940000D4C981E08093120343
:10382000D6C800910C0110910D0161E086E00E9464
:1038300036040115110509F4ABCA0F3F110511F447
:1038400061E0A7CAE0E8F3E0849190E0FC013197E1
:10385000EF30F10508F06CC0EA5AFF4F0C944A2093
:1038600084B5806884BD07BD97CA84B5806284BD75
:1038700008BD92CA80918000806880938000109378
:1038800089000093880088CA8091800080628093BC
:10389000800010938B0000938A007ECA8091800084
:1038A00088608093800010938D0000938C0074CA10
:1038B000809190008068809390001093990000930D
:1038C00098006ACA80919000806280939000109363
:1038D0009B0000939A0060CA80919000886080935A
:1038E000900010939D0000939C0056CA8091C000E8
:1038F00080688093C0008091C0008F7B8093C0005F
:103900000093CF0049CA8091C00080628093C000BC
:103910000093D00041CA8091C20088608093C200A9
:103920008091C2008B7F8093C2000093D20034CA82
:10393000003811050CF084CF2BCA24E330E030931B
:10394000D7012093D6016ECB8CE390E09093D70102
:103950008093D60178CBAAE5B0E0B093D701A093CD
:10396000D60183CBEAE5F0E0F093D701E093D601EE
:1039700098CB4092EC015092ED016092EE01709272
:10398000EF0199CBE9E2F3E01382128288EE93E033
:10399000A0E0B0E084839583A683B78323E431E07D
:1039A000318320832FEF3FEF35872487EDECF2E062
:1039B0001382128284839583A683B78385E591E081
:1039C00091838083E9E0F3E01382128214861686E5
:1039D0001586178681E0808B87E691E0918380834E
:1039E00089E68093FA02EFEDF2E0138612861586DF
:1039F0001486118212821382148215821682178213
:103A0000108640E050E0BA0189ED92E00C94B806CF
:103A10009B01AC010C940C1D0E941F1D0C94901D69
:103A20000E94821D38F00E94891D20F0952311F01C
:103A30000C94791D0C947F1D11240C94C41D0E94BC
:103A4000A11D70F3959FC1F3950F50E0551F629F24
:103A5000F001729FBB27F00DB11D639FAA27F00DE7
:103A6000B11DAA1F649F6627B00DA11D661F829F0E
:103A70002227B00DA11D621F739FB00DA11D621FF3
:103A8000839FA00D611D221F749F3327A00D611D10
:103A9000231F849F600D211D822F762F6A2F1124F2
:103AA0009F5750409AF0F1F088234AF0EE0FFF1F25
:103AB000BB1F661F771F881F91505040A9F79E3F7C
:103AC000510580F00C94791D0C94C41D5F3FE4F304
:103AD000983ED4F3869577956795B795F795E795D2
:103AE0009F5FC1F7FE2B880F911D9695879597F9DB
:103AF000089597F99F6780E870E060E008959FEF70
:103B000080EC089500240A94161617061806090674
:103B1000089500240A941216130614060506089543
:103B2000092E0394000C11F4882352F0BB0F40F4CB
:103B3000BF2B11F460FF04C06F5F7F4F8F4F9F4F0B
:103B4000089557FD9058440F551F59F05F3F71F08D
:103B50004795880F97FB991F61F09F3F79F08795F4
:103B60000895121613061406551FF2CF4695F1DF7D
:103B700008C0161617061806991FF1CF869571050D
:103B8000610508940895E894BB2766277727CB0141
:103B900097F908955058BB27AA270E94E21D0C945C
:103BA000901D0E94821D38F00E94891D20F039F47A
:103BB0009F3F19F426F40C947F1D0EF4E095E7FB6B
:103BC0000C94791DE92F0E94A11D58F3BA176207C2
:103BD00073078407950720F079F4A6F50C94C31DAC
:103BE0000EF4E0950B2EBA2FA02D0B01B901900118
:103BF0000C01CA01A0011124FF27591B99F0593F5C
:103C000050F4503E68F11A16F040A22F232F342FA3
:103C10004427585FF3CF469537952795A795F040F1
:103C20005395C9F77EF41F16BA0B620B730B840B06
:103C3000BAF09150A1F0FF0FBB1F661F771F881FBE
:103C4000C2F70EC0BA0F621F731F841F48F4879516
:103C500077956795B795F7959E3F08F0B0CF939508
:103C6000880F08F09927EE0F979587950895DF93B1
:103C7000DD27B92FBF7740E85FE316161706480720
:103C80005B0718F4D92F0E94A01F9F938F937F93F7
:103C90006F930E94081DE8EEF0E00E94741F0E94DE
:103CA000901D2F913F914F915F910E941F1DDD2329
:103CB00051F09058A2EA2AED3FE049EC5FE3D0785A
:103CC0005D270E94E21DDF910C94901D0E94501F01
:103CD00008F481E008950E947F1E0C94901D0E94BC
:103CE000891D58F00E94821D40F029F45F3F29F0A1
:103CF0000C94791D51110C94C41D0C947F1D0E94CD
:103D0000A11D68F39923B1F3552391F3951B550B2E
:103D1000BB27AA2762177307840738F09F5F5F4F9E
:103D2000220F331F441FAA1FA9F335D00E2E3AF0DD
:103D3000E0E832D091505040E695001CCAF72BD0F5
:103D4000FE2F29D0660F771F881FBB1F2617370746
:103D50004807AB07B0E809F0BB0B802DBF01FF2778
:103D600093585F4F3AF09E3F510578F00C94791DBF
:103D70000C94C41D5F3FE4F3983ED4F38695779589
:103D80006795B795F7959F5FC9F7880F911D969531
:103D9000879597F90895E1E0660F771F881FBB1F8D
:103DA000621773078407BA0720F0621B730B840B3A
:103DB000BA0BEE1F88F7E09508950E94E41E689400
:103DC000B1110C94C41D08950E94A91D88F09F573D
:103DD00098F0B92F9927B751B0F0E1F0660F771F2F
:103DE000881F991F1AF0BA95C9F714C0B13091F025
:103DF0000E94C31DB1E008950C94C31D672F782F56
:103E00008827B85F39F0B93FCCF3869577956795E9
:103E1000B395D9F73EF490958095709561957F4F55
:103E20008F4F9F4F0895E89409C097FB3EF49095FB
:103E30008095709561957F4F8F4F9F4F9923A9F083
:103E4000F92F96E9BB279395F69587957795679512
:103E5000B795F111F8CFFAF4BB0F11F460FF1BC056
:103E60006F5F7F4F8F4F9F4F16C0882311F096E9E9
:103E700011C0772321F09EE8872F762F05C0662397
:103E800071F096E8862F70E060E02AF09A95660F50
:103E9000771F881FDAF7880F9695879597F9089509
:103EA000990F0008550FAA0BE0E8FEEF161617064B
:103EB000E807F907C0F012161306E407F50798F0B3
:103EC000621B730B840B950B39F40A2661F0232BCC
:103ED000242B252B21F408950A2609F4A140A69548
:103EE0008FEF811D811D0895DF93CF931F930F9353
:103EF000FF92EF92DF927B018C01689406C0DA2E6C
:103F0000EF010E941F1DFE01E894A59125913591B6
:103F100045915591A6F3EF010E94E21DFE01970124
:103F2000A801DA9469F7DF90EF90FF900F911F914D
:103F3000CF91DF9108950E94501F08F48FEF0895EC
:103F40009B01AC0160E070E080E89FE30C946B1E85
:103F500019F416F40C947F1D0C94F31F0E94A91DF4
:103F6000B8F39923C9F3B6F39F57550B87FF0E9407
:103F700001200024A0E640EA9001805856959795CC
:103F800028F4805C660F771F881F20F026173707FC
:103F9000480730F4621B730B840B202931294A2B0C
:103FA000A69517940794202531254A2758F7660FC0
:103FB000771F881F20F026173707480730F4620B59
:103FC000730B840B200D311D411DA09581F7B901A4
:103FD000842F9158880F9695879508950E94501FB9
:103FE000880B990B08959F3F31F0915020F48795ED
:103FF00077956795B795880F911D9695879597F951
:10400000089591505040660F771F881FD2F708958A
:10401000991B79E004C0991F961708F0961B881F1A
:104020007A95C9F78095089597FB072E16F40094AA
:1040300007D077FD09D00E946A2007FC05D03EF426
:10404000909581959F4F0895709561957F4F089544
:10405000A1E21A2EAA1BBB1BFD010DC0AA1FBB1F8C
:10406000EE1FFF1FA217B307E407F50720F0A21BFE
:10407000B30BE40BF50B661F771F881F991F1A946B
:1040800069F760957095809590959B01AC01BD0195
:10409000CF010895EE0FFF1F0590F491E02D0994D4
:1040A000A29FB001B39FC001A39F700D811D112479
:1040B000911DB29F700D811D1124911D08950E94C4
:1040C0005020A59F900DB49F900DA49F800D911D31
:1040D00011240895AA1BBB1B51E107C0AA1FBB1FD7
:1040E000A617B70710F0A61BB70B881F991F5A9584
:1040F000A9F780959095BC01CD01089581E090E0ED
:10410000F8940C946D23AEE0B0E0E9E8F0E20C9492
:1041100044230D891E8986E08C831A8309838FEFDF
:104120009FE79E838D83AE01475E5F4F6F89788DD9
:10413000CE0101960E94A520EF81F885E00FF11FC6
:1041400010822E96E4E00C946023ABE0B0E0EBEA42
:10415000F0E20C9436236C017B018A01FC0117828A
:104160001682838181FFCCC1CE0101963C01F6010C
:104170009381F70193FD859193FF81917F018823BE
:1041800009F4BAC1853239F493FD859193FF819189
:104190007F01853229F4B60190E00E949C22E7CF8E
:1041A000912C212C312CFFE1F315D8F08B3279F0D2
:1041B00038F4803279F08332A1F4232D20611DC0C0
:1041C0008D3261F0803369F4232D216016C0832D78
:1041D0008260382EE32DE4603E2E2AC0F32DF86075
:1041E0001DC037FC2DC020ED280F2A3040F08E3244
:1041F000B9F436FC81C1232D2064322E19C036FE5D
:1042000006C08AE0989E200D1124922E11C0EAE08B
:104210002E9E200D1124222EF32DF0623F2E08C079
:104220008C3621F4832D8068382E02C0883641F404
:10423000F70193FD859193FF81917F018111B3CFA8
:10424000982F9F7D9554933028F40C5F1F4F9FE368
:1042500099830DC0833631F0833771F0833509F0CF
:1042600059C021C0F801808189830E5F1F4F8824C7
:104270008394912C530113C02801F2E04F0E511C7E
:10428000F801A080B18036FE03C0692D70E002C045
:104290006FEF7FEFC5010E9491224C018201F32D47
:1042A000FF773F2E16C0280122E0420E511CF80174
:1042B000A080B18036FE03C0692D70E002C06FEFB0
:1042C0007FEFC5010E9486224C01F32DF0683F2E3E
:1042D000820133FC1BC0822D90E088169906B0F451
:1042E000B60180E290E00E949C222A94F4CFF5016E
:1042F00037FC859137FE81915F01B60190E00E9405
:104300009C2221102A9421E0821A910881149104A0
:1043100071F7E8C0843611F0893641F5F80137FEAF
:1043200007C060817181828193810C5F1F4F08C03B
:1043300060817181072E000C880B990B0E5F1F4F57
:10434000F32DFF763F2E97FF09C0909580957095CD
:1043500061957F4F8F4F9F4FF0683F2E2AE030E0EE
:10436000A3010E94D822882E861845C0853731F4D3
:10437000232D2F7EB22E2AE030E025C0932D997F89
:10438000B92E8F36C1F018F4883579F0B5C0803772
:1043900019F0883721F0B0C0E92FE061BE2EB4FEDD
:1043A0000DC0FB2DF460BF2E09C034FE0AC0292FBA
:1043B0002660B22E06C028E030E005C020E130E0E3
:1043C00002C020E132E0F801B7FE07C060817181D0
:1043D000828193810C5F1F4F06C06081718180E0F4
:1043E00090E00E5F1F4FA3010E94D822882E8618EE
:1043F000FB2DFF773F2E36FE0DC0232D2E7FA22EE4
:10440000891458F434FE0BC032FC09C0832D8E7E13
:10441000A82E05C0B82CA32C03C0B82C01C0B92C01
:10442000A4FE0FC0FE01E80DF11D8081803321F450
:104430009A2D997EA92E09C0A2FE06C0B394B3940A
:1044400004C08A2D867809F0B394A3FC11C0A0FEA5
:1044500006C0B21488F4280C922C9B180EC0B2141B
:1044600060F4B60180E290E00E949C22B394F7CF02
:10447000B21418F42B1802C0982C212CA4FE10C0E2
:10448000B60180E390E00E949C22A2FE17C0A1FC2E
:1044900003C088E790E002C088E590E0B6010CC058
:1044A0008A2D867859F0A1FE02C08BE201C080E21D
:1044B000A7FC8DE2B60190E00E949C22891438F49A
:1044C000B60180E390E00E949C229A94F7CF8A94F0
:1044D000F301E80DF11D8081B60190E00E949C225D
:1044E0008110F5CF222009F442CEB60180E290E09F
:1044F0000E949C222A94F6CFF6018681978102C001
:104500008FEF9FEF2B96E2E10C945223FC01059074
:10451000615070400110D8F7809590958E0F9F1FC5
:104520000895FC016150704001900110D8F780950A
:1045300090958E0F9F1F08950F931F93CF93DF9336
:10454000FB01238121FD03C08FEF9FEF2CC022FFD1
:1045500016C046815781248135814217530744F4A0
:10456000A081B1819D012F5F3F4F318320838C93C8
:10457000268137812F5F3F4F3783268314C08B01FD
:10458000EC01FB010084F185E02D0995892BE1F612
:10459000D80116968D919C911797019617969C932A
:1045A0008E931697CE01DF91CF911F910F910895B1
:1045B000FA01AA27283051F1203181F1E8946F9354
:1045C0006E7F6E5F7F4F8F4F9F4FAF4FB1E03ED0FA
:1045D000B4E03CD0670F781F891F9A1FA11D680F98
:1045E000791F8A1F911DA11D6A0F711D811D911DCB
:1045F000A11D20D009F468943F912AE0269F112440
:104600003019305D3193DEF6CF010895462F4770A3
:10461000405D4193B3E00FD0C9F7F6CF462F4F70FE
:10462000405D4A3318F0495D31FD4052419302D05C
:10463000A9F7EACFB4E0A695979587957795679502
:10464000BA95C9F700976105710508959B01AC0102
:104650000A2E06945795479537952795BA95C9F729
:10466000620F731F841F951FA01D08952F923F9204
:104670004F925F926F927F928F929F92AF92BF9272
:10468000CF92DF92EF92FF920F931F93CF93DF931E
:10469000CDB7DEB7CA1BDB0B0FB6F894DEBF0FBE7B
:1046A000CDBF09942A88398848885F846E847D84C8
:1046B0008C849B84AA84B984C884DF80EE80FD80CA
:1046C0000C811B81AA81B981CE0FD11D0FB6F89440
:0E46D000DEBF0FBECDBFED010895F894FFCF01
:1046DE00BE02BE02BE02BE02BE0205000A003D00C0
:1046EE003D00FFFFFFFF00E1000000000000E803B7
:1046FE009101950199019D01A101A501A901AD01AC
:10470E00B101B501B901BD0100C1808100000000F9
:10471E00000000D90B140C9A0CEF0BFA0BC20C9E76
:10472E000C0000000063033603A4031203D602221A
:10473E0003130300000000390A6F02A403A303153C
:10474E0004253032753A2530327500253033753AEE
:10475E0025303275006E616E00696E66006F76668A
:10476E00004A616E00466562004D617200417072D2
:10477E00004D6179004A756E004A756C004175678F
:10478E0000536570004F6374004E6F76004465638E
:10479E00004E6F7620313420323031380032313ACB
:0647AE0034343A323500FC
:00000001FF
